:0300000001810873
:0300010001ED828C
:0300020000C050EB
:0300030000E00416
:0300040000B00544
:0300050001A2064F
:03000600959A01C7
:0300070000E00F07
:0300080001ED8A7D
:0300090001ED8C7A
:03000A0000A00E45
:03000B0001800170
:03000C0000200DC4
:03000D00078A0956
:03000E00050A08D8
:03000F0003820168
:03001000001001DC
:0300110001ED837B
:0300120001ED8776
:0300130001ED9963
:0300140001ED9C5F
:0300150031821D18
:0300160031821F15
:0300170031822112
:030018003182230F
:0300190000E01AEA
:03001A0000A01B28
:03001B00050A01D2
:03001C0000D1818F
:03001D0021881E19
:03001E0001980145
:03001F002988200D
:0300200001980143
:0300210011882221
:0300220001980141
:0300230019882415
:030024000198013F
:03002500000000D8
:03002600000000D7
:03002700000000D6
:03002800000000D5
:03002900000000D4
:03002A00000000D3
:03002B00000000D2
:03002C00000000D1
:03002D00000000D0
:03002E00000000CF
:03002F00000000CE
:03003000000000CD
:03003100000000CC
:03003200000000CB
:03003300000000CA
:03003400000000C9
:03003500000000C8
:03003600000000C7
:03003700000000C6
:03003800000000C5
:03003900000000C4
:03003A00000000C3
:03003B00000000C2
:03003C00000000C1
:03003D00000000C0
:03003E00000000BF
:03003F00000000BE
:03004000000000BD
:03004100000000BC
:03004200000000BB
:03004300000000BA
:03004400000000B9
:03004500000000B8
:03004600000000B7
:03004700000000B6
:03004800000000B5
:03004900000000B4
:03004A00000000B3
:03004B00000000B2
:03004C00000000B1
:03004D00000000B0
:03004E00000000AF
:03004F00000000AE
:03005000000000AD
:03005100000000AC
:03005200000000AB
:03005300000000AA
:03005400000000A9
:03005500000000A8
:03005600000000A7
:03005700000000A6
:03005800000000A5
:03005900000000A4
:03005A00000000A3
:03005B00000000A2
:03005C00000000A1
:03005D00000000A0
:03005E000000009F
:03005F000000009E
:030060000000009D
:030061000000009C
:030062000000009B
:030063000000009A
:0300640000000099
:0300650000000098
:0300660000000097
:0300670000000096
:0300680000000095
:0300690000000094
:03006A0000000093
:03006B0000000092
:03006C0000000091
:03006D0000000090
:03006E000000008F
:03006F000000008E
:030070000000008D
:030071000000008C
:030072000000008B
:030073000000008A
:0300740000000089
:0300750000000088
:0300760000000087
:0300770000000086
:0300780000000085
:0300790000000084
:03007A0000000083
:03007B0000000082
:03007C0000000081
:03007D0000000080
:03007E000000007F
:03007F000000007E
:00000001FF
